:020000040800F2
:100000001807002035020008371700089B12000867
:100010003517000847040008EB180008000000002E
:100020000000000000000000000000003B17000876
:10003000E104000800000000391700083D1700081F
:100040004F0200084F0200084F0200084F0200084C
:100050004F0200084F020008E3040008E90400080A
:10006000EF0400084F0200084F0200084F0200088A
:100070004F0200084F0200084F0200084F0200081C
:100080004F0200084F0200084F0200080000000065
:100090000000000000000000000000004F02000807
:1000A0004F0200084F0200084F0200084F020008EC
:1000B000D1170008DD1700084F0200084F020008A2
:1000C0004F0200084F0200084F0200084F020008CC
:1000D0004F0200084F0200084F0200080000000015
:1000E0004F0200084F0200084F0200080000000005
:1000F0000000000000000000000000004F020008A7
:10010000000000004F0200084F0200084F020008E4
:1001100000000000000000000000000000000000DF
:100120004F0200084F0200084F0200084F0200086B
:100130004F02000800000000000000000000000066
:100140000000000000000000000000004F02000856
:100150004F0200084F0200084F0200084F0200083B
:100160004F0200084F0200080000000000000000DD
:10017000000000000000000000000000000000007F
:10018000000000004F020008000000000000000016
:100190004F02000800F002F800F03CF80AA090E8D6
:1001A000000C82448344AAF10107DA4501D100F032
:1001B00031F8AFF2090EBAE80F0013F0010F18BFC3
:1001C000FB1A43F00103184730340000503400009C
:1001D000103A24BF78C878C1FAD8520724BF30C873
:1001E00030C144BF04680C60704700000023002445
:1001F00000250026103A28BF78C1FBD8520728BF37
:1002000030C148BF0B6070471FB503F01DF91FBD1B
:1002100010B510BD00F0E2F81146FFF7F5FF02F04F
:10022000A5FA00F000F903B4FFF7F2FF03BC00F0F9
:1002300003F900000948804709480047FEE7FEE748
:10024000FEE7FEE7FEE7FEE7FEE7FEE7FEE7FEE786
:1002500004480549054A064B70470000C1170008CD
:10026000950100081801002018070020180300203D
:100270001803002053EA020C00F069802DE9F04BCE
:100280004FF00006002B1FBFB3FA83F503FA05F405
:1002900024FA05F65E4012BF1643B2FA82F502FA5E
:1002A00005F4C5F120051EBF22FA05FC44EA0C0442
:1002B000203556EA044C4FEA144418BF641C4FF032
:1002C00000084FF00009904271EB030C39D300296C
:1002D00019BFB1FA81F701FA07F6B0FA80F700FA10
:1002E00007F6C7F120071EBF20FA07FC46EA0C06F6
:1002F0002037B6FBF4FCA7EB0507103F07F01F0BF8
:10030000CBF120060CFA0BFB2CFA06F644BFB346E1
:100310000026202FA4BF5E464FF0000B5BEA060CC0
:1003200008BF4FF0010B19EB0B09ABFB027C48EB4C
:100330000608C01B06FB02CC0BFB03CC71EB0C01C7
:10034000C1E70B46024641464846BDE8F08B13B56F
:100350004FF000004FF00001AFF30080BDE81C40FB
:1003600070474FF0000200B5134694469646203978
:1003700022BFA0E80C50A0E80C50B1F12001BFF45E
:10038000F7AF090728BFA0E80C5048BF0CC05DF8C4
:1003900004EB890028BF40F8042B08BF704748BF12
:1003A00020F8022B11F0804F18BF00F8012B704786
:1003B00070477047704710B500F008F8006810BD2E
:1003C00010B5044600F002F8046010BD0048704704
:1003D000B800002000487047B80000207546FFF7BD
:1003E000F9FFAE4605006946534620F007008546F2
:1003F00018B020B5FFF72CFFBDE820404FF00006F5
:100400004FF000074FF000084FF0000B21F00701FC
:10041000AC46ACE8C009ACE8C009ACE8C009ACE83F
:10042000C0098D46704710B50446AFF300802046E2
:10043000BDE81040FFF7F7BE01491820ABBEFEE74C
:10044000260002007047FEE70E48016821F0807127
:100450000160016841F0807101600B48016821F082
:1004600001010160016841F001010160002141606A
:1004700000BF00BF00BF406808B1002070470120E6
:1004800070470000FCED00E0001000E031B5084CC2
:10049000656800F0A5FA4FF47A71B0FBF1F00099AD
:1004A000414300916068401B8842FBD338BD000087
:1004B000001000E031B5084C656800F091FA07497A
:1004C000B0FBF1F000994143081A00916168491BA3
:1004D0008142FBD338BD0000001000E040420F0015
:1004E0007047012000F03CB8022000F039B8042029
:1004F00000F036B810B51749012810D0022816D0E0
:10050000042825D14869002822D10421124800F08E
:1005100023F990B11148BDE8104000F037BD48699B
:10052000002815D102F096F90C4848380CE04869CB
:1005300000280DD109484838EDE70848483800F050
:1005400025FD02F0A7F90548BDE8104000F0E8BC21
:1005500010BD0000000000200004024070000020D8
:10056000044910B50A68024202D00860FFF7C2FFD2
:1005700010BD0000143C01402DE9F84FDFF8B8A190
:10058000002201240AF1040B03254FF00F090BF19F
:10059000040E00BF0B6804FA02F63340B34273D175
:1005A0000F7907F00307012F01D0022F16D18768BA
:1005B0004FEA420805FA08FC27EA0C07D1F80CC0FC
:1005C0000CFA08FC4CEA070CC0F808C04768B743AF
:1005D0000E79C6F3001696403E4346600E79F64308
:1005E000B6070DD0C768560005FA06FC27EA0C07C7
:1005F000D1F808C00CFA06FC4CEA070CC0F80CC095
:100600000E7906F00306022E10D1D60800EB8608FC
:10061000D8F8206057074FEAD76C09FA0CF7BE43A9
:100620000F6907FA0CF73743C8F8207006684FEADD
:10063000420C05FA0CF7BE430F7907F0030707FADF
:100640000CF7374307604E6816F4403F6DD03B4EC1
:10065000376847F480473760366822F0030706F4AE
:1006600080460096364E07EB060CDCF808689707C4
:100670003F0F09FA07F826EA0806DFF8C880404568
:1006800003D14FF000081EE04FE0DFF8BC8040458A
:1006900002D14FF0010816E0DFF8B080404502D1EA
:1006A0004FF002080FE0DFF8A880404502D14FF07C
:1006B000030808E0DFF89C80404502D14FF00408B1
:1006C00001E04FF0070808FA07F848EA0608CCF8F6
:1006D0000888DAF800605746D1F804C09E435FEA04
:1006E000CC3C00D51E433E60DBF800605F46D1F88D
:1006F00004C09E435FEA8C3C00D51E433E60DEF89A
:1007000000607746D1F804C09E435FEACC2C00D548
:100710001E433E60084F0C373E68D1F804C09E432C
:100720005FEA8C2C00D51E433E60521C102AFFF459
:1007300031AFBDE8F88F0000003C01404438024072
:100740000030014000000240000402400008024066
:10075000000C0240001002400069084000D0012057
:1007600070470AB1816170470904FBE7014880685E
:100770007047000018000020024881680278114488
:1007800081607047180000200B4810B5016841F4E3
:1007900000710160016841F480610160016841F409
:1007A00080710160032000F06FF80F2000F006F860
:1007B00000F024F8002010BD003C024070B50D4D43
:1007C00004464FF47A712878B1FBF0F00A490968C1
:1007D000B1FBF0F000F0F2FA48B9102C07D2002279
:1007E0002146501E00F030F800206C6070BD0120E2
:1007F00070BD000018000020240000200A4808B541
:10080000016841F480410160006800F4804000907C
:100810000548001F016841F080510160006800F048
:100820008050009008BD000044380240002809DBD9
:1008300000F01F02012191404009800000F1E020FA
:10084000C0F8001170470000F0B40E4B1B680C4656
:10085000C3F30223C3F10705042D00D90425191D94
:10086000072901D2002300E0DB1E012606FA05F16C
:10087000491E214099409E40761E16403143F0BCEF
:1008800001F04CB80CED00E0064900F007020868E2
:100890004FF6FF03184040EA0220034A1043086065
:1008A000704700000CED00E00000FA052DE9F0476C
:1008B0000E46050065D0DFF81481D8F80000F7B2C5
:1008C00000F00700B04207D288F80070D8F80000A6
:1008D00000F00700B04254D128683D4C810712D582
:1008E000400703D5206840F4E050206028780007D6
:1008F00003D5206840F4604020602068A96820F09B
:10090000F000084320602878C0072DD0304968687F
:100910000839012812D0022813D0032811D0096801
:10092000890700292DDA216821F0030101432160A4
:10093000FFF71CFF814641F2883A0EE009688903FF
:10094000EFE709688901ECE7FFF710FFA0EB090169
:10095000514502D90320BDE8F0872068696800F09E
:100960000C00B0EB810FEFD1D8F80010404601F039
:100970000701B14207D90770006800F00700B042D4
:1009800001D00120E7E72878400705D52068E9680D
:1009900020F4E050084320602878000706D520683E
:1009A000296920F4604040EAC100206000F01EF890
:1009B0002168084AC1F30311515CC8400649086028
:1009C00006480068FFF7FAFE0020C4E7003C02403A
:1009D0000838024042350008240000201C00002096
:1009E000014800687047000024000020154810B539
:1009F000006810F00C02144813D01449042A0FD0D8
:100A0000082A0ED10F4C241F2268236802F03F02EF
:100A10005B0207D52068C0F38810A0FB010106E047
:100A2000084610BD2168C1F38811A1FB0001002315
:100A3000FFF720FC2168C1F30141491C4900B0FBCC
:100A4000F1F010BD083802400024F40040787D0128
:100A50002DE9F84F04006ED02078DFF84C93C007E2
:100A6000A9F104054AD009F104000168C1F381012C
:100A7000012908D00068C0F3810002280AD1D9F802
:100A80000000400206D52868800337D5606800283A
:100A9000E1D033E06068B0F5803F10D0B0F5A02F12
:100AA000286810D020F480302860286820F4802046
:100AB00028606068A8B1FFF759FE06460DE0286877
:100AC00040F48030F4E740F480202860F7E700BF6E
:100AD000FFF74CFE801B642873D828688003F7D585
:100AE0000CE0FFF743FE064605E000BFFFF73EFEC1
:100AF000801B6428F0D828688003F7D42078DFF8BA
:100B0000AC8280074FF0000A3ED5A748001D01685F
:100B100011F00C0F08D00068C0F3810002280BD13F
:100B2000D9F80000400207D42868800716D5E0688D
:100B3000012800D112E033E1E068B8B10120C8F823
:100B40000000FFF713FE064605E000BFFFF70EFEAC
:100B5000801B0228C0D828688007F7D5286821693B
:100B600020F0F80040EAC10028600DE0C8F800A0BD
:100B7000FFF7FCFD064604E0FFF7F8FD801B0228A6
:100B80001FD828688007F7D42078000722D5864F21
:100B900087486169703771B101210160FFF7E6FD97
:100BA000064604E0FFF7E2FD801B022809D83868FA
:100BB0008007F7D50EE0C0F800A0FFF7D7FD064686
:100BC00005E082E0FFF7D2FD801B02287DD838685F
:100BD0008007F7D42078400768D5DFF8CCB100272C
:100BE0000BF13C0BDBF80000C0000BD4DBF800106D
:100BF00041F08051CBF80010DBF80000012700F035
:100C0000805000906B4E3068C00510D4306840F4BE
:100C100080703060FFF7AAFD009005E0FFF7A6FDA9
:100C20000099401A022850D83068C005F6D55E4EAB
:100C3000A0686C3601280FD00528306810D020F04D
:100C400001003060306820F004003060A068B8B166
:100C5000FFF78CFD00900FE0306840F00100F4E7F2
:100C600040F004003060F7E7FFF780FD0099411A7B
:100C700041F28830814266D830688007F4D50EE0B2
:100C8000FFF774FD009007E0FFF770FD0099411A2F
:100C900041F28830814256D830688007F4D42FB1B1
:100CA000DBF8001021F08051CBF80010A069C8B328
:100CB0003D49091D0968C1F3810102294AD0022872
:100CC000504607D0C8F8600000E03CE0FFF74EFD5A
:100CD00004463BE04746C8F86000FFF747FD06467C
:100CE00005E000BFFFF742FD801B02282BD82868D3
:100CF0008001F7D4D4E907010843A16A2E4A4908C4
:100D000002EB0141626A41EA8211084394F82C1017
:100D100040EA0161C9F8001001203866FFF726FD9E
:100D2000044606E03EE000BFFFF720FD001B02285E
:100D300009D828688001F7D534E000BFFFF716FD19
:100D4000001B022802D90320BDE8F88F2868800123
:100D5000F4D427E00128F7D0D9F80000E26900F4C4
:100D6000800191421CD1226A00F03F01914217D1CB
:100D700047F6C071626A0140B1EB821F10D1A26ACE
:100D80004FF0FF3300F4403103EB5202B1EB024F5E
:100D900006D194F82C1000F07060B0EB016F01D018
:100DA0000120D1E70020CFE704380240000047428D
:100DB000800E4742007000400000FFFF10B5401E4B
:100DC000B0F1807F01D3012010BD4FF0E0246061BD
:100DD0000F21601700F0A2FD0020A0610720206114
:100DE000002010BD7047704770B590F83C20012A74
:100DF0002CD0012480F83C40022280F83D2003687A
:100E00005A689D6822F070060A6832435A60104B97
:100E100002689A420ED0B2F1804F0BD00D4B9A422D
:100E200008D00D4B9A4205D00C4B9A4202D00C4B85
:100E30009A4204D1496825F080031943916080F8F3
:100E40003D40002180F83C10084670BD022070BD76
:100E5000000001400004004000080040000C004079
:100E60000040014010B5040003D094F83D0010B1DB
:100E700007E0012010BD002084F83C00204600F06F
:100E80001FF8022084F83D00211D206800F0ACFC12
:100E9000012084F8460084F83E0084F83F0084F87E
:100EA000400084F8410084F8420084F8430084F84C
:100EB000440084F8450084F83D00002010BD000087
:100EC00008B501681448B1F1804F14D0134A91421B
:100ED00020D1016841F0020101600068002200F0A9
:100EE0000200009011461D20FFF7AEFC1D20BDE85A
:100EF0000840FFF79BBC016841F0010101600068F8
:100F0000002200F00100009011461C20FFF79CFC1D
:100F10001C20ECE708BD00004038024000040040FF
:100F200090F83D10012901D001207047022180F87E
:100F30003D100168CA6842F00102CA6000680E49AB
:100F400088420ED0B0F1804F0BD00C49884208D0B7
:100F50000B49884205D00B49884202D00A49884291
:100F600004D1816801F00701062903D0016841F02E
:100F700001010160002070470000014000040040B2
:100F800000080040000C0040004001400168CA68B1
:100F900022F00102CA6001680A6A41F211131A4282
:100FA00007D10A6A9B101A4203D10A6822F0010293
:100FB0000A60012180F83D100020704770B504469A
:100FC00090F83C000025012817D0012684F83C60E9
:100FD000022084F83D002068826822F0770222F423
:100FE0007F4282600868502838D00DDC20284FD01E
:100FF00005DC90B3102811D14AE0022070BD3028E2
:1010000046D040280AD13BE060282FD070280DD070
:10101000B0F5805F03D0B0F5005F12D0012584F8F1
:101020003D60002084F83C00284670BDCB68D1E9C3
:101030000121206800F024FC2068816841F07701DC
:1010400009E0CB68D1E90121206800F019FC206893
:10105000816841F480418160E1E719E0CA6849682C
:10106000206800F01FFC5021206806E0CA6849682B
:10107000206800F028FC6021206800F00BFCCEE71F
:10108000CA684968206800F00DFC40212068F4E738
:10109000226801461046F0E7704770B504460068C4
:1010A00001694FF00005C943890715D4C168C943D8
:1010B000890711D4E91E0161012020772068806929
:1010C0008007204602D0FFF7E7FF04E000F098F821
:1010D000204600F096F8257720680169C943490742
:1010E00017D4C168C943490713D46FF004010161E3
:1010F000022020772068806910F4407F204602D0CB
:10110000FFF7CAFF04E000F07BF8204600F079F812
:10111000257720680169C943090716D4C168C94306
:10112000090712D46FF008010161042020772068BC
:10113000C0698007204602D0FFF7AEFF04E000F050
:101140005FF8204600F05DF8257720680169C94303
:10115000C90617D4C168C943C90613D46FF010017A
:101160000161082020772068C06910F4407F204684
:1011700002D0FFF791FF04E000F042F8204600F0B3
:1011800040F8257720680169C943C90708D1C168BB
:10119000C943C90704D1891E0161204600F032F815
:1011A00020680169C943090609D4C168C943090611
:1011B00005D46FF0800101612046FFF713FE20681F
:1011C0000169C943490609D4C168C943490605D420
:1011D0006FF040010161204600F05EF8206801696F
:1011E000C94389060BD4C168C943890607D46FF087
:1011F000200101612046BDE87040FFF7F4BD70BDDD
:101200007047704770B5006800251D4CB0F1804FE5
:101210000FD01C49884223D1A068401CA06061699E
:10122000F9B102281CD101F098FA17A000F08EF94C
:1012300023E06068401C60606068042803D165603A
:10124000E068401CE0606068FA214843206001F0DB
:1012500001FBE0683B2803D1E5602069401C206168
:1012600070BD0C28FCD101F078FA07A000F06EF9EF
:1012700008480068456201206061A56070BD0000FB
:1012800000000020000400405475726E204F666616
:1012900000000000700000207047FEE770B50E4CA3
:1012A00005460022E1892068FFF75BFA284600F036
:1012B00021F8A18901222068FFF753FA208AFFF75D
:1012C000F9F8A18900222068FFF74BFA208ABDE8CF
:1012D0007040FFF7EFB800005435000810B500204B
:1012E000FFF7DCFF0120FFF7D9FFBDE810404620E3
:1012F000FFF7E0B870B5144C0546C007A188206818
:1013000001D0012200E00022FFF72BFAA807E188B4
:10131000206801D5012200E00022FFF722FA6807C9
:101320002189206801D5012200E00022FFF719FA87
:1013300028076189206801D5012200E00022BDE86C
:101340007040FFF70EBA00005435000830B587B082
:1013500014216846FFF705F8FFF776F84E4C4F4A20
:101360004F4821680025914207D1016841F00101F1
:101370000160006800F001001FE04A4A914207D175
:10138000016841F002010160006800F0020014E011
:10139000454A914207D1016841F0040101600068AB
:1013A00000F0040009E0414A914207D1016841F090
:1013B00008010160006800F008000590A188002283
:1013C0002068FFF7CEF9E18800222068FFF7C9F90D
:1013D000218900222068FFF7C4F961890022206872
:1013E000FFF7BFF9E18900222068FFF7BAF9A18968
:1013F00000222068FFF7B5F9A088E18862890843D8
:10140000218911430843E1890843A18908430090D9
:101410000120CDE90105039569462068FFF7ACF886
:10142000E18900222068FFF79CF9A1890022206849
:10143000FFF797F90020FFF75DFF9620FFF726F8EA
:101440000320FFF72BFF0520FFF720F80320FFF70D
:1014500025FF9620FFF72EF80320FFF71FFF02203D
:10146000FFF71CFF0220FFF719FF0820FFF716FF08
:101470000020FFF713FF0C20FFF710FF0020FFF7FD
:101480000DFF0620FFF70AFF0020FFF707FF0120EE
:10149000FFF704FF07B030BD5435000800000240DC
:1014A000303802400004024000080240000C0240B4
:1014B00010B5012802D0022802D00CE07F3100E0F4
:1014C000BF31C8B2010900F00F040846FFF7E6FE7D
:1014D0002046FFF7E3FEBDE810400220FEF7D6BF2E
:1014E00070B5194C00F00F050646E189012220680D
:1014F000FFF737F90F2000EA1610FFF7FBFEA1896E
:1015000001222068FFF72DF9208AFEF7D3FFA18979
:1015100000222068FFF725F9208AFEF7CBFF284636
:10152000FFF7E8FEA18901222068FFF71AF9208A57
:10153000FEF7C0FFA18900222068FFF712F9208A78
:10154000BDE87040FEF7B6BF5435000870B50546DB
:10155000002402E0FFF7C4FF641C285D0028F9D1D5
:1015600070BD00002DE9F04186B014216846FEF7F9
:10157000F8FE39480024016841F004010160016867
:1015800001F004010591016841F001010160016869
:1015900001F001010591016841F00201016000685C
:1015A0002E4F00F002000590002201213846FFF77F
:1015B000D8F8DFF8AC804FF4BE66002231464046D2
:1015C000FFF7CFF801250095CDE90154694638466B
:1015D0000394FEF7D1FF0220CDE9000469463846A6
:1015E0000294FEF7C9FF0096CDE9015469464046D2
:1015F0000394FEF7C1FF032000904FF40410CDE9DF
:101600000105184C69462046FEF7B6FF04200090FD
:101610004FF44410CDE9010569462046FEF7ACFFC2
:10162000002211460620FFF70FF90620FFF7FEF80B
:10163000002211460720FFF707F90720FFF7F6F809
:10164000002211460820FFF7FFF80820FFF7EEF808
:1016500006B0BDE8F08100003038024000080240CA
:10166000000002400004024010B586B00024164875
:10167000009401940294039404944FF080410594E3
:10168000016043F67F61C0E90114F921C0E9031448
:101690008461FFF7E7FB08B172B6FEE74FF48050B4
:1016A000009069460848FFF789FC08B172B6FEE76A
:1016B000049404A904480594FFF796FB002801D080
:1016C00072B6FEE706B010BD2800002010B586B047
:1016D000002417480094019402940394049413493D
:1016E0000594016043F67F61C0E90114F921C0E966
:1016F00003148461FFF7B6FB08B172B6FEE74FF43E
:101700008050009069460A48FFF758FC08B172B64D
:10171000FEE7049404A906480594FFF765FB00283A
:1017200001D072B6FEE706B010BD00000004004014
:1017300070000020FEE7FEE770477047FFF71CB817
:1017400010B592B030216846FEF70BFE14210CA8AC
:10175000FEF707FE18480024016841F0805101603F
:10176000006800F0805011901448016821F4404155
:1017700041F4004101600068069400F4404011907B
:101780000220009001200390102004906846FFF78B
:101790005FF908B172B6FEE70F20CDE90C040E9494
:1017A0000F9400210CA81094FFF780F8002801D0B6
:1017B00072B6FEE712B010BD403802400070004023
:1017C0000248016841F470010160704788ED00E053
:1017D0000148FFF762BC0000280000200148FFF725
:1017E0005CBC000070000020F0B502681D4B1E4C70
:1017F0009F031E4D1E4E984207D0B84205D0A0420E
:1018000003D0A84201D0B04204D122F0700C4A6843
:1018100042EA0C02984210D0B8420ED0A0420CD03E
:10182000A8420AD0B04208D0124CA04205D0124CB7
:10183000A04202D0114CA04203D122F44074CA68E5
:1018400022434C6922F08002224302608A68C2620D
:101850000A688262984201D10969016301214161EC
:10186000F0BD0000000001400004004000080040FE
:10187000000C00400040014000440140004801408D
:1018800010B5846842EA032224F47F440A432243C9
:10189000826010BD826822F070020A4342F00701A4
:1018A0008160704710B5036A046A24F00104046281
:1018B000846924F0F00444EA021423F00A020A4383
:1018C0008461026210BD10B5036A23F01003036245
:1018D0008369046A23F4704343EA023224F0A003CC
:1018E00043EA01118261016210BDFEE703B4019871
:1018F0004100009850EAC12018BF04204A0D18BFCB
:1019000040F0010040F2FF72B2EB515F08BF40F0BF
:101910000200012808BF052002B070470907090E20
:10192000002804DB00F1E02080F80014704700F08C
:101930000F0000F1E02080F8141D70470000000047
:101940002DE9F04D2DED040B2DED0E8B96B0DDE95C
:101950002550279CDDF890A025F0004624F0004893
:10196000BAF1000F14BF0121002101EB4502FC492F
:1019700053184A1093422AD3002814BF012300238E
:1019800003EB44030B44F7498B4220D358EA000190
:101990009FEDF59B76D0DFF8D8B35D4503D1BAF162
:1019A000000F05D188E0BAF1000F08BF002100D078
:1019B000012101EB450111F5001F08D8002814BFD3
:1019C0000121002101EB440111F5001F0BD99DED10
:1019D000261B9DED240B16B0BDEC0E8B04B0BDE8AC
:1019E000F04D00F069BE0027002DBCBFE1498845DD
:1019F00021DAE1498845A8BF02271CDAC3451ADC71
:101A0000DE4901EB2851142908DDC1F1340220FA26
:101A100002F101FA02F282420DD108E058B9C1F197
:101A2000140228FA02F101FA02F2424503D101F050
:101A30000101C1F1020756EA0A0124D1002C22DA81
:101A4000002D18BF022F01D0012F0AD00220FEF76F
:101A5000B7FC16B0BDEC0E8B04B0BDE8F04D00F045
:101A600013BE0220FEF7ACFC00F00EFE51EC100B92
:101A700000F051FF41EC100B16B0BDEC0E8B04B022
:101A8000BDE8F08D18E09FEDBEAB9FEDBF8B002849
:101A900071D1B848804522D105F1804010F5801001
:101AA00008BFBAF1000F07D0B3450ADC002CA8BF6D
:101AB0009DED260BE0DA0DE0B0EE490AF0EE690A82
:101AC000DAE7002C06DA9DED260B51EC100B00F046
:101AD00022FF6FE0AE48784490ED000BCCE7D8458C
:101AE0004DD1002C48DA2EB186423AD1BAF1000F1E
:101AF00042D126E0BAF1000F13D00220FEF760FCBD
:101B000000F0F6FD8DED020B9DED240B8DED000B2D
:101B100010EE900A039961F31E0003909DED020BF5
:101B2000AAE78DED02AB9DED240B1AEE901A10EE94
:101B3000900A8DED000B61F31E0003909DED020BEA
:101B40009AE78DED028B9DED240B18EE901A10EEA6
:101B5000900A8DED000B61F31E0003909DED020BCA
:101B60008AE709DA9DED240B51EC190B53EC102B8D
:101B700000F09AFF1EE020E09DED240B7CE78642FA
:101B80001BDAB4F1804F0DD0A4F10050B0F1FF503A
:101B900013D1002D11DB9DED240B51EC100B00F047
:101BA00083FE07E09DED240B53EC102B51EC100B42
:101BB00000F0C2BC41EC100B5EE79DED240B51EC34
:101BC000100B00F0B5FDBAF1000FCDE90E0142D1C6
:101BD0009FED710B46B3A6F1E040B0F17F600CD0F1
:101BE0005E4538D1002D00DAA7B3022F0CBF0120CB
:101BF0004FF0FF3001F0DFF8DCE7002D01DD002CB5
:101C00000DDA002D01DD002C1FDB002D16DA002C73
:101C100014DB012F08BF9FED620B3FF42DAFB0EE38
:101C20004A0AF0EE6A0A27E7022F18BF002D0CD0EF
:101C3000012F0AD1002DFFF61FAF06E0002DB8BF1F
:101C4000002C08DA012F3FF417AFB0EE480AF0EE8F
:101C5000680A11E71BE0012000EBE57050EA07017C
:101C600015D0791EB0EE498AF0EE698A084308BFA4
:101C70009FED4D8B4E480025804570DD4D494E4807
:101C8000884514DDB0420DDB002C19DB2FE001206C
:101C9000FEF796FB16B0BDEC0E8B04B0BDE8F04D20
:101CA00000F016BDB34502DC002C09DC1FE08642C3
:101CB00002DA002C1BDA03E05E452BDD002C16DD7A
:101CC0000220FEF77DFB00F013FD8DED020B53ECBF
:101CD0001A2B51EC180B01F0C1F8CDE90001039962
:101CE000019861F31E0003909DED020BC4E60220F3
:101CF000FEF766FB00F00CFD10EE901A18EE900A4D
:101D00008DED020B8DED008B61F31E0003909DEDB8
:101D1000020BB1E69DED0E0B53EC192B51EC100BA1
:101D200001F0A8FA9FED260BCDE9080153EC102B2A
:101D30009DED080B51EC100B01F090F89FED221B6C
:101D400053EC112B01F0BEF99DED081B53EC112B48
:101D500001F084F89FED1E1B53EC112B3CE08CE04E
:101D6000FFFF1F00FFFF0F00000000000000F03F1A
:101D70000000F03F0000F07F0000404301FCFFFF47
:101D8000000000000000F07F0000000000000000E4
:101D9000161B000000000000000000000000008092
:101DA000000000000000F0FF000000000000F0BF95
:101DB0000000E0410000F043FFFFEF3F00000000A3
:101DC000000000000000D03F555555555555D53FF2
:101DD000000000000000E03F01F074F99DED080BE9
:101DE00041EC1A0B53EC102B51EC100B01F036F8B0
:101DF00053EC1A2B01F032F841EC1A0B9FEDFE0B5D
:101E000053EC102B9DED080B51EC100B01F026F854
:101E100041EC1B0B9FEDFA0B51EC1A0B53EC102B02
:101E200001F01CF841EC1A0B9FEDF70B53EC102B53
:101E30009DED080B51EC100B01F010F853EC1A2B30
:101E400001F018FA41EC1A0B51EC1B0B53EC1A2B56
:101E500000F06EFD0690CDE906519DED060B53ECAA
:101E60001B2B51EC100B01F005FA53EC1A2B01F06F
:101E700029F941EC100B00F0A1B90020B6F5801F44
:101E80000EDA9FEDE30B53EC102B9DED0E0B51EC96
:101E9000100B00F0E3FFCDE90E016FF034000E46A9
:101EA00000EB2650A0F2FF37C6F31300DA4940F0EA
:101EB0007F6646F040568842D8BF002408DDD749E7
:101EC0008142C8BF012403DC0024A6F580167F1CD4
:101ED000D348784400EBC4000F9690ED00CB9DED05
:101EE0000E0B53EC1C2B51EC100B01F0C3F99DEDC4
:101EF0000E0B41EC1B0B53EC1C2B51EC100B00F0A8
:101F000017FD41EC100B51EC190B53EC102B00F0AA
:101F1000CBFD41EC1D0B51EC1B0B53EC1D2B00F0CA
:101F20009DFF41EC1A0BBF488DED10AB7844109526
:101F300090ED000B4FF0005040EA660000EB84404B
:101F40008DED080B00F5002009909DED080B53EC7A
:101F50001C2B51EC100B01F08DF99DED0E1B53EC79
:101F6000112B01F0AFF841EC100B53EC102B9DED51
:101F7000100B51EC100B00F071FF9DED080B41ECC4
:101F80001C0B53EC102B9DED100B51EC100B00F0C3
:101F900065FF53EC1B2B01F095F853EC1C2B01F063
:101FA00069F953EC1D2B00F059FF41EC1C0B53EC6D
:101FB0001A2B51EC1A0B00F051FF41EC1B0B9A4805
:101FC0000621B0EE4B0AF0EE6B0A784400F0E0FA1E
:101FD000B0EE401AF0EE601AB0EE41DAF0EE61DADF
:101FE00053EC1B2B51EC1B0B00F038FF53EC1D2B5B
:101FF00000F034FF9DED100B41EC1B0B53EC1A2B42
:1020000051EC100B00F094FC53EC1C2B00F026FF5D
:1020100053EC1B2B00F08CFC9DED100B41EC1B0BCB
:1020200053EC102B51EC100B00F018FF41EC1D0B82
:102030009FED7FEB53EC1E2B00F07AFC53EC1B2B37
:1020400000F076FC0890CDE908519DED080B53ECAB
:102050001E2B51EC100B01F00DF953EC1D2B01F070
:1020600009F953EC1B2B01F02DF89DED080B41EC09
:102070001D0B53EC102B9DED100B51EC100B00F0D1
:10208000EDFE41EC1B0B53EC1A2B51EC1D0B00F039
:10209000E5FE9DED080B41EC1A0B53EC102B51ECB7
:1020A0001C0B00F0DBFE53EC1A2B00F041FC41EC62
:1020B0001A0B51EC1B0B53EC1A2B00F039FC0C9053
:1020C000CDE90C519DED0C0B53EC1B2B51EC100B7F
:1020D00001F0D0F853EC1A2B00F0F4FF41EC1B0B8D
:1020E0009FED550B53EC102B9DED0C0B51EC100B91
:1020F00000F0B4FE41EC1A0B9FED510B51EC1B0BA1
:1021000053EC102B00F0AAFE41EC1B0B9FED4E0B85
:1021100053EC102B9DED0C0B51EC100B00F09EFEC0
:1021200053EC1B2B00F004FC41EC100B48487844A6
:1021300000EBC40090ED001B51EC100B53EC112B85
:1021400000F0F6FB41EC1B0B384600F034FECDE905
:10215000080153EC1B2B51EC1A0B00F0E9FB41EC8E
:10216000100B3C48784400EBC40090ED00CB51ECE0
:10217000100B53EC1C2B00F0DBFB9DED081B53EC0C
:10218000112B00F0D5FB0690CDE906519DED080B13
:1021900053EC102B9DED060B51EC100B01F06AF87F
:1021A00053EC1C2B01F066F853EC1A2B01F062F88B
:1021B00053EC1B2B00F086FF41EC100B9DED261B12
:1021C00053EC102B8DED001B00959DED260B51EC73
:1021D000100B00F043FE9DED000B41EC1A0B53EC8D
:1021E000102B9DED260B51EC100B01F043F89DEDEB
:1021F000061B53EC112B2FE0000000604715F73F42
:10220000FE822B654715F73F44DF5DF80BAE543E69
:1022100000000000000040438E9803007AB60B00D7
:1022200092160000C0160000CA1500000000000051
:102230000000000000000840000000E009C7EE3F79
:10224000FD033ADC09C7EE3FF5015B14E02F3EBE0B
:10225000561400001014000000F000FE53EC1A2B7E
:1022600000F066FB9DED060B41EC1A0B53EC102BB6
:102270009DED000B51EC100B00F0F0FDCDE90C01D1
:102280009DED0C0B51EC1A0B53EC102B00F050FB96
:10229000CDE902010C46AA498C422FDB611A0843A2
:1022A00018D19DED0C0B53EC102B9DED020B51EC56
:1022B000100B00F0DFFF41EC1B0B9FEDA30B51EC6B
:1022C0001A0B53EC102B00F033FB53EC1B2B00F0DC
:1022D000C3FE2DD20220FEF773F800F009FA10EECB
:1022E000901A18EE900A8DED020B8DED008B61F3C4
:1022F0001E0003909DED020BFFF7BEBB944A24F035
:102300000041914214D39349214408437FF4EFAC38
:102310009DED0C0B53EC102B9DED020B51EC100BB3
:1023200000F0A8FF53EC1A2B00F096FE7FF6DFAC0E
:1023300024F000408849894A002601EB205182425E
:102340002BDA481C4FF4801121FA00F02044844A13
:10235000C0F30A517A44A1F2FF3192ED000B814A99
:102360008DED080BCA4020EA0202C0F3130040F4CE
:102370008010C1F1140120FA01F60992002CB8BFB7
:1023800076429DED080B53EC102B9DED0C0B51ECA0
:10239000100B00F06FFFCDE90C019DED0C0B51EC23
:1023A0001A0B53EC102B00F0C3FA9FED6F0B089043
:1023B000CDE9085153EC102B9DED080B51EC100B9F
:1023C00000F04CFD41EC1B0B9FED690B53EC102B07
:1023D0009DED080B51EC100B00F040FD9DED0C0B3A
:1023E00041EC1C0B53EC102B9DED080B51EC100B2A
:1023F00000F040FF53EC1A2B00F064FE9FED5E1BD3
:1024000053EC112B00F02AFD53EC1C2B00F090FA3A
:1024100041EC1A0B51EC1B0B53EC1A2B00F088FA11
:10242000CDE902019DED020B53EC1B2B51EC100B7F
:1024300000F020FF53EC1A2B00F044FE9DED020B40
:1024400041EC1A0B53EC102B51EC100B00F006FD75
:10245000CDE908014A489DED080B0521784400F0BC
:1024600097F89DED081B51EC100B53EC112B00F06D
:10247000F5FC9DED021B53EC112B00F023FECDE982
:1024800006019DED020B53EC1A2B51EC100B00F0E2
:10249000E5FC53EC1A2B00F04BFA9FED3B0B41ECA3
:1024A0001A0B53EC102B9DED060B51EC100B00F0AA
:1024B000E1FE9DED060B41EC1B0B53EC102B9DED4B
:1024C000020B51EC100B00F0C9FC53EC1B2B00F07D
:1024D000EBFA53EC1A2B00F0CDFE9DED021B53ECF2
:1024E000112B00F0C7FE53EC192B00F0EBFDCDE9EA
:1024F000020101EB065001150029C8BF039015DC4D
:102500009DED020B324651EC100B00F0D4FFFFF7AB
:10251000EDF9042808BF00F0FBF832469DED020BF0
:1025200051EC100B00F0C7FFCDE902019DED020B4D
:1025300051EC180B53EC102B00F090FCFFF73ABB5A
:102540000000904000000000FE822B654715973C7C
:1025500000CC904000346F3F01FCFFFF0000E03FE3
:1025600098120000FFFF0F0000000000432EE63F1E
:10257000396CA80C615C20BEEF39FAFE422EE63FB2
:102580006811000000000000000000000000004092
:1025900070B504462DED028B4D1E00EBC500B0EE6C
:1025A000408AF0EE608A90ED000B35F0060017D0FF
:1025B00053EC182B51EC100B00F050FC41EC100BBD
:1025C0006D1E04EBC50090ED001B51EC100B53EC9D
:1025D000112B00F0ADF941EC100B35F00600E7D1FE
:1025E000022D36D0042D1CD0062D1CBFBDEC028B55
:1025F00070BD53EC182B51EC100B00F02FFC94ED38
:102600000A1B53EC112B00F093F953EC182B00F03C
:1026100025FC94ED081B53EC112B00F089F941ECDB
:10262000100B53EC182B51EC100B00F017FC94ED31
:10263000061B53EC112B00F07BF953EC182B00F028
:102640000DFC94ED040B53EC102B00F071F941ECF0
:10265000100B53EC182B51EC100B00F0FFFB94ED1A
:10266000021B53EC112B00F063F953EC182B00F014
:10267000F5FB94ED001B53EC112B00F059F9BDEC68
:10268000028B41EC100B70BD9FED070B10B553ECA6
:10269000102B9FED070B51EC100B00F005FA41ECED
:1026A000100B10BD00000000000000000000000042
:1026B000000000000000F03F10B553EC112B51EC6E
:1026C000100B00F035F941EC100B10BD00000000BC
:1026D0009FED050B10B553EC102B51EC100B00F0D7
:1026E000E3F941EC100B10BD0000000000000000F9
:1026F0009FED050B10B553EC102B51EC100B00F0B7
:10270000ADFB41EC100B10BD00000000000000709C
:102710009FED050B10B553EC102B51EC100B00F096
:102720009DFB41EC100B10BD0000000000000010EC
:1027300082B0CDE9000121F0004001909DED000B39
:1027400002B051EC100B704700210A2290FBF2F00E
:10275000491C0028FAD10846704710B5FEF7BEFDA7
:102760000121BDE810400846FEF7A2BEFEF70CF8B6
:10277000FEF7ECFDFEF7E4FFFEF7F4FEFEF774FF54
:10278000FEF7A4FFFFF7E9FF01A0FEF7DFFEFEE77B
:1027900057656C636F6D6521000000000A2802DA3E
:1027A0003020FEF79DBE704710B50446642802DA5B
:1027B0003020FEF795FE0A2C04DABDE810403020E8
:1027C000FEF78EBE10BD00002DE9F04107462DED4D
:1027D000048BFFF7B9FF044631E0601E00F0EBFA0E
:1027E0009FED1A9B8846054648EC110BB0EE490A4E
:1027F000F0EE690AFFF7A4F8B0EE408AF0EE608AC6
:10280000384600F0D8FA53EC182B00F04DF900F0E0
:10281000A3FA064648EC115BB0EE490AF0EE690AED
:10282000FFF78EF851EC100B00F096FA97FBF0F1E1
:1028300000FB11773036F0B2FEF752FE641E002C1A
:10284000CBDCBDEC048BBDE8F08100000000000093
:102850000000244010B5FFF780FF0D4C2069FFF702
:102860009DFF2069FFF7B0FF3A20FEF739FEE068D0
:10287000FFF794FFE068FFF7A7FF3A20FEF730FE6E
:102880002068FFF791FF2068BDE81040FFF79CBF6C
:1028900000000020034800210160C1600161FFF7D2
:1028A000D9BF00000000002000B52DED048B83B0DF
:1028B00041EC190B00F012FC41EC180B18EE100A59
:1028C00018EE901A8DED008B002818BF01200843E8
:1028D00020F00040C0F17F6000F1E040C00F14D054
:1028E00019EE101A19EE900A8DED009B002918BF01
:1028F0000121084320F00040C0F17F6000F1E0407A
:10290000C00F04BF0120FDF75BFD51EC180B03B0B5
:10291000BDEC048B00BD81F00041704780F00040A9
:10292000704721F00041704720F0004070470000E0
:1029300010B591EA030F48BF83F0004300F1A28471
:10294000841A71EB030C05D2121943EB0C03001B24
:1029500061EB0C01DFF824E14FEA1154A4EB135CA6
:102960001EEA430F18BF9EEA445F73D023EA0E03AA
:10297000DCF1200E21EA045143F4801332D322FA11
:102980000CFE10EB0E0023FA0CFE41EB0E01CCF115
:10299000200E03FA0EFE10EB0E0051F10001B1F50E
:1029A000801FCCF1200E32D201EB045112FA0EF24C
:1029B000BDE8104058BF7047401C38BF5FEA420274
:1029C00018BF7047002814BF20F0010041F100013A
:1029D0004FEA410313F5001F38BF7047A1F1C04112
:1029E00000F034BB012A43EB0302ACF1200CDCF114
:1029F0001F0E32BF4FF0000E23FA0CF310EB030052
:102A000041EB0451B4EB115FD0D0A1EB045101F5BF
:102A1000801149085FEA300001EB04510ED350F1F8
:102A2000000038BF12FA0EFE08D1BDE81040C9E719
:102A3000401C38BF5FEA4202CAD1C3E7BDE810407C
:102A40004FEA410313F5001F38BF7047A1F1C041A1
:102A500000F0FCBA9EEA445F08D011EA5E0FBDE8C0
:102A6000104004BF01F0004100207047BDE8104055
:102A700070B500F09DFA00BF64FBBE3E0000E0FFB1
:102A800002494FF0000000F0E4BC00BF0000F87FF6
:102A9000491058BFC1F140415B1058BFC3F14043DA
:102AA0008B42EFF3008070472DE9C04130B4DFF86E
:102AB000A0C23CEA111418BF3CEA131400F0EC80E9
:102AC00081EA03051CEA111444EAD57418BF1CEA14
:102AD000131500F0C780A4EB05044FF0004545EA4C
:102AE000C12145EAC32341EA505143EA525304F15C
:102AF0007F74994204F500344FEAC0204FEAC222A5
:102B000008BF904200F09C804FEA13650FF2401618
:102B1000765D4FEA134506FB05F7C7F1807706FBA4
:102B200007F74FEAD737A7FB03687642C8F5803826
:102B3000A7FB06CE38BFA8F1010807FB08E64FF057
:102B4000000EA6FB028CE6FB03CEDCF1000CCEF1FE
:102B5000004E38BFAEF1010EA6FB0C584FF0000737
:102B60004FF00005E6FB0E87A1FB08C6A0FB07CED1
:102B700016EB0E0645F10005E1FB076515F1E04E89
:102B80007EBFA4F580345FEA46066D4116F18007EA
:102B900045F100054FEA17274FEA066647EA056741
:102BA000A6F1DE46B6F1805F4FEA15251FD93846FB
:102BB00024F0010C05EBC471BCF1FE6F01EB0C11AC
:102BC00002D8F0BCBDE8008124425CBF01F5801E44
:102BD0009EEAC47F02D4F0BCBDE80081244238D410
:102BE000F0BCA1F1C041BDE8004100F02FBA4FEAAE
:102BF000D22242EA43524FEAD323A7FB02864FEA8E
:102C0000D02040EA415007FB03661EEA0E0F4FEA50
:102C1000D12105FB026658BFA6EB0056B6EB005665
:102C20004FEA520E4EEAC37E18EB0E0E56EB530ED1
:102C3000BDD518EB02085E417F1C55F10005B6E7D3
:102C40004FF480154FF000074FF000064FF00008DA
:102C5000ADE7F0BC4FF0000001F1C04101F00041D0
:102C6000BDE8008111EA0C1F0CEA131500D00CE03E
:102C700013EA0C1F00F025804FF00000F0BC81EA41
:102C8000030101F00041BDE80081F0BCBDE8004156
:102C900081EA030100F0DAB9F0BCBDE8004170B58B
:102CA00000F086F9097EFC3E00F007B881EA0301D6
:102CB0004FF0000001F00041704781EA030100F08D
:102CC000C5B9F0BCBDE800414FF000002149704794
:102CD000FFFDFBF9F7F5F4F2F0EEEDEBE9E8E6E4E1
:102CE000E3E1E0DEDDDBDAD8D7D5D4D3D1D0CFCD68
:102CF000CCCBCAC8C7C6C5C4C2C1C0BFBEBDBCBBA1
:102D0000BAB9B8B7B6B5B4B3B2B1B0AFAEADACAB9B
:102D1000AAA9A8A8A7A6A5A4A3A3A2A1A09F9F9E75
:102D20009D9C9C9B9A999998979796959594939327
:102D3000929191908F8F8E8E8D8C8C8B8B8A8989BE
:102D40008888878786858584848383828281818041
:102D50000000FF070000F87F4FEA41034FEA53539A
:102D6000A3F58063D3F11E03C8BFD3F1210C0CDDA2
:102D70004FF0004242EAC12242EA505232FA03FCCA
:102D80008CEAE17CACEBE1707047102BC4BF0020F3
:102D9000704703F5787CBCF1FF3F04D06FF0004230
:102DA00082EA2100704770B500F002F94992248050
:102DB00000207047F2E710F0004248BF4042B0FAEE
:102DC00080F310FA03F10AD0C3F11D0303F5806309
:102DD0004FEA415002EB035202EBD12170474FF012
:102DE0000000704751EA030C17D41CF5801F58BF30
:102DF000BCF5801F00F10680994218BF704708BFDC
:102E00009042704707D711F5801F58BF13F5801FF8
:102E100019D499427047894270471CF5801F08D524
:102E2000BCF5801FF7D58B4218BF704708BF8242A0
:102E300070474FF4001C1CEB410F38BF1CEB430FD5
:102E400001D28B42704770B500F0B2F8922449006D
:102E50004FF000514FF08053FFF71ABEDFF848C122
:102E600070B51CEA111E1EBF1CEA13159EEA0C0F5A
:102E700095EA0C0F00F06F8081EA030423EA4C13FB
:102E80004EEAD47E21EA4C1141F4801143F48013C0
:102E9000AE44A1FB024CA0FB0365AEF17F7E361968
:102EA00055EB0C05A1FB034C4CF10003A0FB021CED
:102EB00016EB0C06654153F10003094218BF46F0BA
:102EC000010613F4007F0BD14FEA03314FEA0530BE
:102ED000340341EA155140EA16506FF003020AE04C
:102EE0004FEAC3214FEAC520F40241EA555140EAB6
:102EF00056506FF0020202EB2E4201EB025585EABA
:102F0000CE710AD05FEA440C18BF24F0004450F19F
:102F1000000041F1000120EAD47040F2FE7C6245DD
:102F200000D270BDA84214BF4FF080444FF040441F
:102F3000002E08BF0024BEF1806FA8BFA1F1C041E0
:102F4000BDE8704080F282804FF0000001F1C04186
:102F500001F0004170479EEA0C0F0CEA131518BFF0
:102F600095EA0C0F06D04FF0000081EA030E0EF038
:102F7000004170BD00F01CF88900013E00F007B868
:102F800000F009B84FEA430C5FEA5C5C08D081EAC4
:102F9000030100F05BB84FEA410C5FEA5C5CF6D1DC
:102FA0004FF00000014970470000FF070000F87F64
:102FB0000EF1020E2EF0030E5EF8046B364205D4BD
:102FC000012A43EB030515F5001F12D8012841EB38
:102FD000010C1CF5001F0CD80ED14FEAD17C15F561
:102FE000001F0CEB4C0C0CF1020C08BF4CEBD37C1B
:102FF00004E04FF0080C01E04FEAD37C0CEB4C05E9
:1030000026FA05F606F00706B6F1040C06D20EEB1A
:10301000860CBDE870404CF0010C6047DFE80CF016
:10302000090B02024FF000414FF00000A1F5002112
:1030300070BD19461046012851EB010418BFD4F5A4
:10304000001484BF002001F0004170BD0808A0F505
:1030500000114FEA3101704753EA010C17D41CF5F7
:10306000801F58BFBCF5801F00F106808B4218BF3F
:10307000704708BF8242704707D713F5801F58BFBB
:1030800011F5801F19D48B4270479B4270471CF585
:10309000801F08D5BCF5801FF7D5994218BF70472F
:1030A00008BF904270474FF4001C1CEB430F38BF21
:1030B0001CEB410F01D2994270470FB40CBC03BC0A
:1030C000FFF7C1BE91EA030F10B581F000413FF553
:1030D00037AC83F0004300F0D5B800002DE9F04193
:1030E00001F5801CBCF5001FC0F2A9804FEA115CFD
:1030F00021EA0C510CF1FD0C41F480115FEA5C0CEB
:103100000CF5C07C01D34000494130A4890241EA5A
:10311000905187028E0E0A0CA45D04FB04F602FB9C
:1031200006F6C6F14046A4FB0662F60D46EA4226C4
:1031300006FB06F4A4FB01235242C3F1404338BF0F
:103140005B1EA6FB02420024E6FB0324D20B42EAEC
:103150004446A6FB0623A1FB02E2A3FB07E4E3FB34
:1031600061426442C2F1404E38BFAEF1010EA6FB8F
:1031700004234FF00002E6FB0E32A2FB03463400AC
:10318000E2FB6264A1FB06E6A4FB07E8E4FB6168DE
:103190007642C8F1405838BFA8F10108A2FB06E406
:1031A000A3FB08E5E2FB6854A1FB05E6A7FB04E8E6
:1031B000E1FB648618F1200556F10006A809A8F184
:1031C0001B08B10908F03F08B8F10A0F40EA866011
:1031D0001CD901EB0C51BDE8F08100BFFCF5EEE815
:1031E000E2DDD8D3CFCBC7C3C0BDB9B6B4B1AEACA6
:1031F000A9A7A5A3A19F9D9B9A9896959392908F1E
:103200008D8C8B898887868584838281A0FB00686A
:1032100000FB01F208EB4208B8EB872807D5341809
:1032200058EB0104D5D5401C51F10001D1E7341A07
:1032300078EB0104CDD4401E71F10001C9E75FEACB
:103240004C0C5FEA9C5C0DD105D34FF0000001F0FF
:103250000041BDE8F081BDE8F04170B5FFF7A8FE80
:103260006DDBFFBEBDE8F0414FF000000049704744
:103270000000F87F10B591EA030F48BF83F00043C8
:103280003FF55EAB841A71EB030C07D212198CF078
:10329000004C43EB0C03001B61EB0C01DFF8A4E1D5
:1032A0004FEA1154A4EB135C1EEA430F18BF9EEAC9
:1032B000445F00F0B08023EA6E03524221EA0451D9
:1032C000C3EB6E0338BF5B1EDCF1200E25D322FA60
:1032D0000CFE10EB0E0043FA0CFE41EB0E01CCF19C
:1032E000200E03FA0EFE10EB0E0051F10001CCF19E
:1032F000200E29D412FA0EF201EB0451BDE8104061
:1033000058BF7047401C1CBFB2F1004F70470028E7
:103310000CBF491C20F00100704712EB020E43EB7A
:10332000030218BF4FF0010E4EEA4202ACF1200C2E
:10333000DCF11E0E54D943FA0CFE10EB0E0051F1D5
:10334000FF31CCF11E0ED5D50EF1010E12FA0EFE94
:10335000404141EB010101EB445C5FEA5C5C10D948
:1033600010EBDE7001EB045138BFBEF1004FBDE839
:10337000104018BF704700280CBF491C20F0010006
:10338000704730D24FEAD42C11F5001124F40064B8
:103390001BD0B1FA81F20B3AA41AA41ED2F1200379
:1033A000914030FA03F31943904001EBCC71002CAB
:1033B00001EB0451BDE81040A8BF704701F1C041C6
:1033C0004FF0000001F000417047B0FA80F310FAAE
:1033D00003F100D110BDE41A173C4805C90AE4E71F
:1033E00001EB045110BD491001EB0451BDE8104040
:1033F0004FEA300002E04FF0000170474A0008BF7A
:103400000042F8D0B2F5001F28BF704701F000411C
:103410004FF0000070479EEA445F07D011EA5E0F4C
:10342000BDE8104004BF002100207047BDE81040F7
:1034300070B5FFF7BDFD00BF40DFF63E83F00041F1
:10344000104670470000E0FF4FF04070E1EE100AB8
:1034500070470CF00F03092B08BF082000F05980BB
:103460000A2B0BD0082B18BF704708BF1CF0400F69
:103470000AD04FF000004FF0000170471CF0400FE1
:1034800018BF4FF0004070471CF0100F08D020F01C
:10349000704300F07F4242EAD3014FEA4370704725
:1034A00000F0604021F07F4242EA000201F07F40DC
:1034B00040EA727070474FF0FF0C4CF4E06C1CEA6D
:1034C00011531CBF9CEA030C9445C2BFDA4201EBC6
:1034D00002517047002B0DD0BCF1000F0FD0002A15
:1034E00001F00041A4BF41F0E04141F07F614FF0A5
:1034F0000000704701F000414FF00000704750EAB3
:1035000001334FF09B0C18BF4CF0806C7FF4B8AACD
:1035100070471CF4801F11D01CF4E02F03D06FEA19
:10352000CC31490070474FF04050EFF3008222F059
:10353000704242EA000282F3008870474FF00000B8
:1035400070470000000000000000010203040607AD
:103550000809000000000240100020004000800028
:103560000001000414000000000000000000F03F13
:10357000000000000000F83F000000000000000014
:103580000000004003B8E23F00000000000000001F
:1035900006D0CF43EBFD4C3E033333333333E33FAD
:1035A000FFAB6FDBB66DDB3F4D268F515555D53FD9
:1035B00001411DA96074D13F65DBC9934A86CD3FA7
:1035C000EF4E454A287ECA3F3E5555555555C53F95
:1035D00093BDBE166CC166BF2CDE25AF6A56113F87
:1035E000F16BD2C541BDBBBED0A4BE726937663E89
:1035F0000000000000000000183600080000002055
:1036000028000000D00100084036000828000020F3
:10361000F0060000EC0100080000000000000000BF
:10362000000000000000000000000000000000009A
:103630000100000010000000000000000024F40061
:040000050800019559
:00000001FF
